:100000000C9434000C9449000C9449000C94490061
:100010000C9449000C9449000C9449000C9449003C
:100020000C9449000C9449000C9449000C9449002C
:100030000C9449000C9449000C9449000C9449001C
:100040000C9449000C9449000C9449000C9449000C
:100050000C9449000C9449000C9449000C944900FC
:100060000C9449000C94490011241FBECFEFD8E036
:10007000DEBFCDBF11E0A0E0B1E0E6EDF4E002C0EC
:1000800005900D92A233B107D9F70E949F010C94FD
:1000900069020C94000088E48093B8001092B900C3
:1000A000089584EA8093BC008091BC0087FFFCCF58
:1000B000089584E98093BC0008958093BB0084E890
:1000C0008093BC008091BC0087FFFCCF0895CF9344
:1000D000C82F0E94510088E70E945D0080E00E94C6
:1000E0005D008C2F0E945D0084E98093BC00CF915D
:1000F0000895CF93C82F0E94510088E70E945D00A9
:1001000080E40E945D008C2F0E945D0084E9809352
:10011000BC00CF9108952FEF81EE94E021508040F4
:100120009040E1F700C000008EEA0E9467008DE871
:100130000E94670084E10E9467008FEA0E946700C6
:1001400080E20E94670082E00C946700CF93C62F84
:1001500080550E9467008C2F8F700E9467008C2F43
:1001600082958F70805FCF910C946700EF92FF9221
:100170000F931F93CF93DF93E82ED62F83E00E9437
:10018000A60085E0E89E7001112410E000E0F8016F
:10019000EE0DFF1DE050FF4F8081C3E080FFC0E007
:1001A00081FDCC6082FDC06383FDC06C8C2F0E94FA
:1001B00079008C2F0E9479000F5F1F4F05301105C9
:1001C00031F76D2F84E00E94A60010E000E0F801F6
:1001D000EE0DFF1DE050FF4F8081C3E084FFC0E0C3
:1001E00085FDCC6086FDC06387FDC06C8C2F0E94AE
:1001F00079008C2F0E9479000F5F1F4F0530110589
:1002000031F7DF91CF911F910F91FF90EF900895FB
:100210005C9827E030E090E0AC01022E02C05595DA
:1002200047950A94E2F740FF0CC05A9A5B9A4AE05D
:100230004A95F1F700C05B982150310968F75C9A44
:1002400008955A98F3CF29982AE02A95F1F700C02B
:10025000299A85E38A95F1F70000299890E080E0DB
:100260001A9905C0019681322EE49207C9F760E021
:1002700070E0CB0108C06F5F7F4F8F4F9F4F25E02D
:100280002A95F1F700001A9B06C060322EE472072F
:100290008105910581F72AE330E040E050E00E94BB
:1002A0004702C90108950F931F93CF93DF930E94D4
:1002B0002301EC018436910510F0C3E6D0E06DE235
:1002C00083E00E94A6000EE110E080E00E94790029
:1002D00001501109D1F76DE284E00E94A6000EE101
:1002E00010E080E00E94790001501109D1F7CE01A1
:1002F0006AE070E00E943302962F182F62E3892F84
:100300000E94B6006EE3812F0E94B600CE010197D5
:100310000E9748F484E00E940801289ADF91CF915B
:100320001F910F91089528982F9782E0609708F009
:1003300081E0DF91CF911F910F910C94080184B15E
:100340008B6084B98AB18C618AB983E88093B000EC
:1003500087E08093B1000E944B000E948B00C0E0B8
:1003600060E08C2F0E94A60000E810E080E00E9470
:10037000790001501109D1F7CF5FC83089F716E134
:1003800005E1D4E11093B3000E9453012FEF87EEF3
:1003900093E0215080409040E1F700C000000093BE
:1003A000B3000E9453012FEF87EE93E0215080406D
:1003B0009040E1F700C00000D093B3000E945301C9
:1003C0002FEF87EE93E0215080409040E1F700C08E
:1003D0000000D093B3000E9453012FEF87EE93E00B
:1003E000215080409040E1F700C000000093B3002E
:1003F0000E9453012FEF87EE93E021508040904000
:10040000E1F700C000001093B3000E9453012FEFEA
:1004100087EE93E0215080409040E1F700C000005B
:10042000C6E1C093B3000E9453012FEF87EE93E023
:10043000215080409040E1F700C00000CF5FCA31FA
:1004400081F7C9E1C093B3000E9453012FEF87EEFB
:1004500093E0215080409040E1F700C00000C1507F
:10046000C53181F78FCFAA1BBB1B51E107C0AA1F63
:10047000BB1FA617B70710F0A61BB70B881F991F45
:100480005A95A9F780959095BC01CD010895A1E2F8
:100490001A2EAA1BBB1BFD010DC0AA1FBB1FEE1FFE
:1004A000FF1FA217B307E407F50720F0A21BB30B49
:1004B000E40BF50B661F771F881F991F1A9469F7C5
:1004C00060957095809590959B01AC01BD01CF0121
:0604D0000895F894FFCF2F
:1004D6003E5149453E00427F400042615149462116
:1004E60041454B311814127F1027454545393C4A82
:1004F60049493001710905033649494936064949D2
:02050600291EAC
:00000001FF
